:100000000C9462000C948A000C948A000C948A0070
:100010000C948A000C948A000C948A000C948A0038
:100020000C948A000C948A000C948A000C948A0028
:100030000C948A000C9459050C948A000C948A0044
:100040000C94AC0F0C948A000C9498030C947203DB
:100050000C948A000C948A000C948A000C948A00F8
:100060000C942B040C948A0000000000240027004C
:100070002A0000000000250028002B0000000000DE
:1000800023002600290004040404040404040202DA
:100090000202020203030303030301020408102007
:1000A0004080010204081020010204081020000012
:1000B0000008000201000003040700000000000027
:1000C00000002F1611241FBECFEFD8E0DEBFCDBF3A
:1000D00024E0A2EEB2E001C01D92A537B207E1F71D
:1000E00012E0A0E0B1E0EAEBF2E302C005900D926D
:1000F000A23EB107D9F710E0C2E6D0E004C02197D4
:10010000FE010E945E17C136D107C9F70E94F60FA3
:100110000C945B190C9400000895CF92DF92EF923B
:10012000FF920F931F93CF93DF936C017A018B01A2
:10013000C0E0D0E0CE15DF0581F0D8016D918D01D2
:10014000D601ED91FC910190F081E02DC601099559
:10015000892B11F02196EECF7E01C701DF91CF915F
:100160001F910F91FF90EF90DF90CF900895FC01C9
:10017000538D448D252F30E0842F90E0821B930B0C
:10018000541710F0CF96089501970895FC01918DB2
:10019000828D981761F0828DDF01A80FB11D5D96E9
:1001A0008C91928D9F5F9F73928F90E008958FEF57
:1001B0009FEF0895FC01918D828D981731F0828D0B
:1001C000E80FF11D858D90E008958FEF9FEF089562
:1001D000FC01918D228D892F90E0805C9F4F821BC6
:1001E00091098F73992708958EE993E00E94E800A2
:1001F00021E0892B09F420E0822F0895FC01848DF1
:10020000DF01A80FB11DA35ABF4F2C91848D90E040
:1002100001968F739927848FA689B7892C93A0891B
:10022000B1898C91837080648C93938D848D9813A5
:1002300006C00288F389E02D80818F7D8083089538
:10024000EF92FF920F931F93CF93DF93EC0181E026
:10025000888F9B8D8C8D981305C0E889F9898081E2
:1002600085FD26C0F62E0B8D10E00F5F1F4F0F731C
:100270001127E02E8C8DE8120CC00FB607FCFACFC8
:10028000E889F989808185FFF5CFCE010E94FE00C3
:10029000F1CF8B8DFE01E80FF11DE35AFF4FF08285
:1002A0009FB7F8940B8FEA89FB89808180620AC02E
:1002B0009FB7F894EE89FF896083E889F989808186
:1002C0008370806480839FBF81E090E0DF91CF9155
:1002D0001F910F91FF90EF900895CF93DF93EC0162
:1002E000888D8823C9F0EA89FB89808185FD05C056
:1002F000A889B9898C9186FD0FC00FB607FCF5CF90
:10030000808185FFF2CFA889B9898C9185FFEDCFD7
:10031000CE010E94FE00E7CFDF91CF91089580E0EB
:1003200090E0892B29F00E94F40081110C940000C8
:10033000089585ED8093BC008091BC0084FDFCCFC6
:1003400010927903089540912203262F30E0240F64
:10035000311D21323105DCF4209179032430C9F4B8
:10036000FC0180E090E0861758F43091220321913F
:10037000DC01AE5FBC4FA30FB11D2C930196F3CFF0
:1003800080912203680F6093220380E0089581E04A
:10039000089582E00895089508950895E091520324
:1003A00080915103E81730F4F0E0EE51FD4F808169
:1003B00090E008958FEF9FEF089590915203809100
:1003C0005103981750F4E92FF0E0EE51FD4F2081D2
:1003D00030E09F5F9093520302C02FEF3FEFC901BF
:1003E00008958091510390E020915203821B91095E
:1003F0000895CF92DF92EF92FF920F931F93CF93C6
:10040000DF937C01CB018A0120917A03222389F0BA
:10041000EB016B01C40ED51ECC15DD0569F06991A9
:10042000D701ED91FC910190F081E02DC701099574
:10043000F3CF642F0E94A301C801DF91CF911F91D8
:100440000F91FF90EF90DF90CF900895CF93DF93BF
:100450001F92CDB7DEB7698320917A032223D1F0B2
:1004600020919D03203240F021E030E0FC013383F5
:10047000228380E090E015C080917B03E82FF0E0BC
:10048000E458FC4F998190838F5F80937B03809326
:100490009D0305C061E0CE0101960E94A30181E0A9
:1004A00090E00F90DF91CF91089580E090E0089563
:1004B0000F931F93CF93DF93EC018881998100976D
:1004C00029F02A813B812617370788F48B016F5F5B
:1004D0007F4F0E948518009761F0998388831B8362
:1004E0000A832C813D81232B11F4FC01108281E0D1
:1004F00001C080E0DF91CF911F910F910895EF929D
:10050000FF920F931F93CF93DF936115710511F441
:1005100080E01CC041155105C1F07B01EC018C81CC
:100520009D818A01080F191FB801CE010E9458024F
:10053000882371F3288139818C819D81B701820FD5
:10054000931F0E9454191D830C8381E0DF91CF918A
:100550001F910F91FF90EF900895CF93DF93EC01DF
:1005600088819981009711F00E94FC1719821882E6
:100570001D821C821B821A82DF91CF910895EF9217
:10058000FF920F931F93CF93DF93EC017B018A01BE
:10059000BA010E945802811104C0CE010E94AD022E
:1005A00007C01D830C83B701888199810E9454196B
:1005B000CE01DF91CF911F910F91FF90EF900895A1
:1005C000CF93DF93EC016115710561F0FB010190A0
:1005D0000020E9F73197AF01461B570B0E947F02BD
:1005E000811103C0CE010E94AD02CE01DF91CF91F7
:1005F0000895CF93DF93EC01FB0144815581608125
:1006000071810E947F02811103C0CE010E94AD0260
:10061000CE01DF91CF910895CF93DF93EC01611567
:10062000710559F0FB0101900020E9F73197AF0106
:10063000461B570B0E94BF0202C00E94AD02CE01B2
:10064000DF91CF910895CF93DF93EC01FB018617E3
:10065000970761F0608171816115710529F044810E
:1006600055810E94BF0202C00E94AD02CE01DF91FF
:10067000CF910895FC01808191810C94FC17FC01BD
:100680001182108213821282158214820C94230329
:10069000FC0111821082138212821582148261156C
:1006A000710551F0FB0101900020E9F73197AF018E
:1006B000461B570B0C94BF0208956115710579F024
:1006C000FB0101900020E9F73197AF01461B570B62
:1006D000DC01ED91FC910280F381E02D099480E032
:1006E00090E008951F920F920FB60F9211242F934E
:1006F0003F934F935F936F937F938F939F93AF93AA
:10070000BF93EF93FF938EE993E00E94FE00FF9169
:10071000EF91BF91AF919F918F917F916F915F9179
:100720004F913F912F910F900FBE0F901F901895F2
:100730001F920F920FB60F9211242F938F939F93B6
:10074000EF93FF93E091AE03F091AF038081E091CE
:10075000B403F091B50382FD12C090818091B7037C
:100760008F5F8F732091B803821751F0E091B70328
:10077000F0E0E256FC4F958F8093B70301C0808173
:10078000FF91EF919F918F912F910F900FBE0F903E
:100790001F90189534E0660F771F3A95E1F74111E5
:1007A000616021116460FC012681378112161306F5
:1007B0000CF46860FC01848191E090937A0380934B
:1007C0009C0310927B0310929D038BE394E00E94A4
:1007D00026020C94B00AFF920F931F93CF93DF93DE
:1007E000EC018B01F42E21E00E94CA0320E04F2D82
:1007F000B801CE010E94CA038FE890E00197F1F79B
:10080000DF91CF911F910F91FF900895FF920F9369
:100810001F93CF93DF938C01EB01F42E84E0759549
:1008200067958A95E1F76F707727C8010E94EB03FF
:10083000BE016F7077274F2DC801DF91CF911F91B7
:100840000F91FF900C94EB0370E041E00E940604CE
:1008500081E090E008951F920F920FB60F9211243D
:100860002F933F934F935F936F937F938F939F93B8
:10087000AF93BF93EF93FF938091B900887F803649
:1008800009F49CC068F5883209F45BC090F48031AB
:1008900009F454C038F4882309F4F6C0883009F408
:1008A0004DC0F6C0883109F44CC0803209F45DC0F7
:1008B000EFC0803409F468C048F4803309F455C0AF
:1008C000883309F0E5C080937703D8C0803509F4F8
:1008D0004FC0883509F45DC0883409F0D9C0D6C04E
:1008E000883909F4C7C0A8F4883709F467C038F418
:1008F000883609F463C0803709F460C0C9C08838FD
:1009000009F4B8C0803909F45FC0803809F0C0C06C
:100910005BC0803B09F486C038F4803A09F466C0B5
:10092000883A09F47FC0B4C0803C09F4A7C0883C71
:1009300009F4A4C0883B09F48AC0AAC0809154037A
:1009400010C09091760380917503981770F5E0912F
:10095000760381E08E0F80937603F0E0EB5AFC4F34
:1009600080818093BB0085EC86C0809377038EC026
:10097000E091760381E08E0F809376038091BB0037
:10098000F0E0EB5AFC4F80839091760380917503E1
:100990006EC0E091760381E08E0F809376038091A4
:1009A000BB00F0E0EB5AFC4F80838091780381110B
:1009B0006DC081E08093530384EA61C083E080933B
:1009C000790310924403CFCF80914403803208F022
:1009D00051C0E091440381E08E0F809344038091E5
:1009E000BB00F0E0EC5DFC4F8083BDCF85EC8093D5
:1009F000BC001092790380914403803230F4E0917E
:100A00004403F0E0EC5DFC4F10826091440370E021
:100A1000E0914D03F0914E0384E293E0099510922A
:100A2000440336C084E0809379031092230310922C
:100A30002203E0914F03F091500309958091220326
:100A4000811105C081E08093220310920203E0919E
:100A5000230381E08E0F80932303F0E0EE5FFC4FD1
:100A600080818093BB00909123038091220398178B
:100A700008F479CF85E88093BC000AC085EC8093A8
:100A8000BC001092790304C0109277030E94990170
:100A9000FF91EF91BF91AF919F918F917F916F9156
:100AA0005F914F913F912F910F900FBE0F901F902C
:100AB00018951F920F920FB60F9211242F933F9308
:100AC0004F935F936F937F938F939F93AF93BF9356
:100AD000EF93FF93CF93DF93CDB7DEB72C97DEBFB5
:100AE000CDBF8EEE95E89093850080938400809131
:100AF0004503811108C08DE00E941C0E61E068274B
:100B00008DE00E94450E60914603709147036F5F30
:100B10007F4F70934703609346038091450388237A
:100B200021F16A3071050CF1CE0107960E94740C18
:100B300060E671E0CE0101960E944803BE01695F44
:100B40007F4FCE0101960E94F9020E94830DCE01D3
:100B500001960E943A03CE0107960E943A03109232
:100B6000450360E082E00E94450E2C960FB6F89493
:100B7000DEBF0FBECDBFDF91CF91FF91EF91BF914F
:100B8000AF919F918F917F916F915F914F913F9125
:100B90002F910F900FBE0F901F901895CF93DF935A
:100BA000CDB7DEB72C970FB6F894DEBF0FBECDBF22
:100BB0000E94D50B0E940C0B61EE72E0CE010796ED
:100BC0000E94480380914503882319F062E771E091
:100BD00002C06CEC72E0CE0107960E940C0365E740
:100BE00071E0CE0101960E944803BE01695F7F4F0C
:100BF000CE0101960E94F902FC0144815581608179
:100C0000718182E594E00E948D00CE0101960E94E0
:100C10003A03CE0107960E943A032C960FB6F89439
:100C2000DEBF0FBECDBFDF91CF910895AF92BF92CF
:100C3000CF92DF92EF92FF920F931F93CF93DF93A8
:100C4000CDB7DEB76E970FB6F894DEBF0FBECDBF3F
:100C50005C016B017A01890183E891E00E94700BCD
:100C600061EE72E0CE010D960E94480361EE72E0E3
:100C7000CE0143960E94480361EE72E0CE01499690
:100C80000E944803B6018AE0C816D104ECF4CE01F4
:100C900007960E94740C65E971E0CE0101960E94EE
:100CA0004803BE01695F7F4FCE0101960E94F902A1
:100CB000BC01CE010D960E942303CE0101960E9435
:100CC0003A03CE0107960DC0CE0101960E94740C26
:100CD000BE016F5F7F4FCE010D960E940E0CCE01BC
:100CE00001960E943A03B7018AE0E816F104ECF499
:100CF000CE0107960E94740C65E971E0CE01019661
:100D00000E944803BE01695F7F4FCE0101960E9499
:100D1000F902BC01CE0143960E942303CE01019645
:100D20000E943A03CE0107960DC0CE0101960E94A3
:100D3000740CBE016F5F7F4FCE0143960E940E0C74
:100D4000CE0101960E943A03B801CE010A30110586
:100D5000E4F407960E94740C65E971E0CE010196F7
:100D60000E944803BE01695F7F4FCE0101960E9439
:100D7000F902BC01CE0149960E942303CE010196DF
:100D80000E943A03CE0107960CC001960E94740C93
:100D9000BE016F5F7F4FCE0149960E940E0CCE01BF
:100DA00001960E943A03BE01635F7F4FCE01019618
:100DB0000E943F0365EC71E0CE0101960E94E002C3
:100DC000BE016D5E7F4F0E94F90265EC71E00E94EA
:100DD000E002BE01675E7F4F0E94F902BC01C501BF
:100DE0000E943F03CE0101960E943A03CE0149962C
:100DF0000E943A03CE0143960E943A03CE010D961B
:100E00000E943A03C5016E960FB6F894DEBF0FBE7E
:100E1000CDBFDF91CF911F910F91FF90EF90DF90A9
:100E2000CF90BF90AF9008950F931F93CF93DF9310
:100E300000D000D000D0CDB7DEB78C010E94770D76
:100E40000E946B0D67E971E0CE0101960E94480394
:100E500041E060E070E0CE0101960E94E10BCE011E
:100E600001960E943A03C8010E94B10B64EA71E046
:100E7000CE0101960E94480340E061E070E0CE019F
:100E800001960E94E10BCE0101960E943A0326963C
:100E90000FB6F894DEBF0FBECDBFDF91CF911F918B
:100EA0000F9108950F931F93CF93DF9300D000D03D
:100EB00000D0CDB7DEB78C010E94770D0E946B0D7C
:100EC00061EB71E0CE0101960E94480341E060E0D1
:100ED00070E0CE0101960E94E10BCE0101960E94C6
:100EE0003A03C8010E94B10B6CEB71E0CE01019690
:100EF0000E94480340E061E070E0CE0101960E944C
:100F0000E10BCE0101960E943A0326960FB6F894A3
:100F1000DEBF0FBECDBFDF91CF911F910F9108951E
:100F2000DF92EF92FF920F931F93CF93DF9300D046
:100F300000D000D0CDB7DEB77C01D62E6AE672E0D5
:100F4000CE0101960E94480341E060E070E0CE01CE
:100F500001960E94E10BCE0101960E943A0302E540
:100F600014E0F80164857585CB01816095878487DD
:100F7000696040E0C8010E940604F8016485758537
:100F8000CB018260958784876A6040E0C8010E9437
:100F90000604B701CE0101960E943F0340E061E0E4
:100FA00070E0CE0101960E94E10BCE0101960E94F5
:100FB0003A0361E070E08D2D90E00E94830B26964D
:100FC0000FB6F894DEBF0FBECDBFDF91CF911F915A
:100FD0000F91FF90EF90DF900895DF92EF92FF92D4
:100FE0000F931F93CF93DF9300D000D000D0CDB7E5
:100FF000DEB77C01D62E61EB71E0CE0101960E9436
:10100000480341E060E070E0CE0101960E94E10BF0
:10101000CE0101960E943A0302E514E0F8016485CE
:101020007585CB01816095878487696040E0C80140
:101030000E940604F80164857585CB01826095875E
:1010400084876A6040E0C8010E940604B701CE01AF
:1010500001960E943F0340E061E070E0CE010196FE
:101060000E94E10BCE0101960E943A0361E070E01C
:101070008D2D90E00E94830B26960FB6F894DEBF6C
:101080000FBECDBFDF91CF911F910F91FF90EF90D9
:10109000DF9008950F931F93CF93DF93CDB7DEB703
:1010A0006E970FB6F894DEBF0FBECDBF8C010E94C5
:1010B000740E61EE72E0CE010D960E94480361EE5F
:1010C00072E0CE0143960E94480361EE72E0CE01C9
:1010D00049960E94480360914C04CE016A30E0F4C6
:1010E00007960E94470C65E971E0CE0101960E94C7
:1010F0004803BE01695F7F4FCE0101960E94F9024D
:10110000BC01CE0149960E942303CE0101960E94A4
:101110003A03CE0107960CC001960E94470CBE010F
:101120006F5F7F4FCE0149960E940E0CCE01019653
:101130000E943A0360914B04CE016A30E0F40796B6
:101140000E94470C65E971E0CE0101960E944803B8
:10115000BE01695F7F4FCE0101960E94F902BC017A
:10116000CE010D960E942303CE0101960E943A0300
:10117000CE0107960CC001960E94470CBE016F5F1E
:101180007F4FCE010D960E940E0CCE0101960E945B
:101190003A0360914A04CE016A30E0F407960E9457
:1011A000470C65E971E0CE0101960E944803BE013B
:1011B000695F7F4FCE0101960E94F902BC01CE010A
:1011C00043960E942303CE0101960E943A03CE016A
:1011D00007960CC001960E94470CBE016F5F7F4FBF
:1011E000CE0143960E940E0CCE0101960E943A0356
:1011F000BE01675E7F4FCE0101960E943F0365EC02
:1012000071E0CE0101960E94E002BE01635F7F4F54
:101210000E94F90265EC71E00E94E002BE016D5E81
:101220007F4F0E94F902BC01C8010E943F03CE011A
:1012300001960E943A03CE0149960E943A03CE01DC
:1012400043960E943A03CE010D960E943A03C801CC
:101250006E960FB6F894DEBF0FBECDBFDF91CF9173
:101260001F910F9108950F931F93CF93DF93CDB7E5
:10127000DEB76E970FB6F894DEBF0FBECDBF8C0100
:101280000E94740E61EE72E0CE010D960E9448033A
:1012900061EE72E0CE0143960E94480360915004D3
:1012A00070915104CE0149960E94740C60914E04D5
:1012B000CE016A30E0F407960E94470C65E971E0C0
:1012C000CE0101960E944803BE01695F7F4FCE01A7
:1012D00001960E94F902BC01CE0143960E942303AD
:1012E000CE0101960E943A03CE0107960CC00196EA
:1012F0000E94470CBE016F5F7F4FCE0143960E9454
:101300000E0CCE0101960E943A0360914F04CE016B
:101310006A30E0F407960E94470C65E971E0CE015F
:1013200001960E944803BE01695F7F4FCE0101967E
:101330000E94F902BC01CE010D960E942303CE014A
:1013400001960E943A03CE0107960CC001960E94B6
:10135000470CBE016F5F7F4FCE010D960E940E0CB1
:10136000CE0101960E943A03BE016D5E7F4FCE0111
:1013700001960E943F0367EC71E0CE0101960E9446
:10138000E002BE01635F7F4F0E94F90267EC71E0EB
:101390000E94E002BE01675E7F4F0E94F902BC011D
:1013A000C8010E943F03CE0101960E943A03CE017C
:1013B00049960E943A03CE0143960E943A03CE0119
:1013C0000D960E943A03C8016E960FB6F894DEBFE0
:1013D0000FBECDBFDF91CF911F910F91089580E493
:1013E00080937C0080917A00806480937A00809161
:1013F0007A0086FDFCCF809178002091790090E002
:10140000922B8E329105DCF09C012C5331092B304C
:101410003105B8F0295131092B303105A0F02451A4
:1014200031092B30310588F0295131092B30310534
:1014300070F0865991090B9760F485E0089581E07A
:10144000089584E0089582E0089583E0089586E099
:10145000089580E008950F931F93CF93DF938B013E
:1014600087709927BC0183E0660F771F8A95E1F7A3
:10147000606440E082E594E00E940604E801005FB9
:101480001F4F6881229682E594E00E942404C017D1
:10149000D107B9F7DF91CF911F910F91089560E0C7
:1014A000809149040E94450E8BE090E00197F1F78E
:1014B0000895FF920F931F93CF93DF93F62EC0E012
:1014C000D0E0082F10E0B8010C2E02C0759567958A
:1014D0000A94E2F76170809148040E94450E61E031
:1014E000809147040E94450E60E0FF2041F0C73024
:1014F000D10529F4809148040E94360F04C08091E0
:1015000047040E94450E2196C830D105E1F6DF91CF
:10151000CF911F910F91FF900895CF93DF93C7E470
:10152000D4E060E08A810E94450E61E08A810E94D9
:10153000360F60E088810E94450E61E088810E943C
:10154000360F61E089810E94360F61E08A810E9436
:10155000450E8BE090E00197F1F7DF91CF91089570
:1015600030919D03313208F04BC080917903811195
:10157000FCCF90919C0322E02093790321E02093FB
:1015800078032FEF2093770310927603309375033F
:10159000ECE7F3E0A5E5B3E020E0321721F041915C
:1015A0004D932F5FFACF1092540320915403990F5B
:1015B000922B9093540390915303913061F41092C5
:1015C0005303909154039093BB009091BC0093FD02
:1015D000F8CF95EC01C095EE9093BC009091790303
:1015E0009230E1F3909177039F3F79F080917703F8
:1015F000803241F080917703803331F084E005C080
:1016000081E003C082E001C083E010927B0310926E
:101610009D0310927A03089540E061E070E082E556
:1016200094E00E9406048BEF98E10197F1F708958A
:10163000109252031092510310927B0310929D035B
:101640001092790381E0809378031092530361E054
:1016500082E10E94450E61E083E10E94450EE9EBC4
:10166000F0E080818E7F808380818D7F808388E41D
:101670008093B80085E48093BC008BEC91E090935C
:10168000500380934F038CEC91E090934E03809332
:101690004D0308950F931F93CF93DF938C010C1785
:1016A0001D07B4F061E08DE00E94450E64E670E035
:1016B00080E090E00E94720F60E08DE00E94450E95
:1016C00064E670E080E090E00E94720F2196E7CF20
:1016D00060E08DE0DF91CF911F910F910C94450E4A
:1016E000CF93DF93BC018EE993E00E945D03EC0190
:1016F0006FED72E08EE993E00E945D038C0F9D1FF9
:10170000DF91CF910895CF93DF93CDB7DEB72897C0
:101710000FB6F894DEBF0FBECDBF28E0E8E2F1E0DF
:10172000DE01119601900D922A95E1F7660F771F61
:10173000E1E0F0E0EC0FFD1FE60FF71F6081718123
:10174000860F971FBC01606840E082E594E0289610
:101750000FB6F894DEBF0FBECDBFDF91CF910C94D2
:101760000604CF93DF93EC0162E171E080E090E04A
:101770000E942B0A62E071E081E090E00E942B0A57
:10178000BE018DE090E00E94830B41E060E070E0DC
:1017900082E594E00E94060441E061E070E082E5A9
:1017A00094E0DF91CF910C94060440E062E070E099
:1017B00082E594E00E9406048BEF98E10197F1F72F
:1017C0000895FF920F931F93CF93DF93EC018B014A
:1017D000F42E8FEF90E0909359048093580420E00A
:1017E00041E060E070E082E594E00E94CA030E945C
:1017F000D50BF1100E940C0BB80180E090E00E9424
:10180000830B4C815D816881798182E594E0DF9171
:10181000CF911F910F91FF900C948D000F931F9308
:10182000CF93DF938C01EB01FC01808191810097C4
:10183000B1F0688179816115710579F04281538138
:101840002C813D814217530740F00E9454198C812E
:101850009D81F8019583848313C00E94FC178881C1
:101860009981F801918380838A819B81938382830C
:101870008C819D8195838483198218821B821A82B0
:101880001D821C82DF91CF911F910F9108950F93BC
:101890001F93CF93DF93CDB7DEB729970FB6F89498
:1018A000DEBF0FBECDBF8C01862FF80111821082E2
:1018B00013821282158214824AE0BE016F5F7F4F4D
:1018C00090E00E94A716BE016F5F7F4FC8010E9483
:1018D0000C0329960FB6F894DEBF0FBECDBFDF9183
:1018E000CF911F910F9108950F931F93CF93DF9383
:1018F000CDB7DEB762970FB6F894DEBF0FBECDBF8F
:101900008C01CB01F80111821082138212821582A0
:1019100014824AE0BE016F5F7F4F0E949C16BE0199
:101920006F5F7F4FC8010E940C0362960FB6F89458
:10193000DEBF0FBECDBFDF91CF911F910F910895F4
:10194000833081F028F4813099F08230A1F008953D
:101950008730A9F08830B9F08430D1F480918000CC
:101960008F7D03C0809180008F77809380000895E1
:1019700084B58F7702C084B58F7D84BD0895809132
:10198000B0008F7703C08091B0008F7D8093B0004E
:1019900008953FB7F8948091650490916604A091F2
:1019A0006704B091680426B5A89B05C02F3F19F0C5
:1019B0000196A11DB11D3FBFBA2FA92F982F8827CF
:1019C000820F911DA11DB11DBC01CD0142E0660F2A
:1019D000771F881F991F4A95D1F70895CF92DF92FC
:1019E000EF920F931F93CF93DF93E62F98E0A9E632
:1019F000B4E0ED0119929A95E9F73AE0632F0E945D
:101A0000081750916904507887708295807F952BD4
:101A1000982B909369048E2F0E94081750916A04A6
:101A2000507887708295807F952B982B90936A04CD
:101A3000842F0E94081740916B04407C837082952C
:101A4000807F942B982B90936B04802F0E94081713
:101A500040916C04407C83708295807F942B982BFE
:101A600090936C048E2D0E94081730916D04307F86
:101A7000932B80FB94F990936D04277080916E04F2
:101A8000887F282B20936E04C601805D97406AE012
:101A900070E00E9414176295607F8F70682B6093CE
:101AA0006F040E948D0A60E08EEB0E94590AC9E61D
:101AB000D4E001E714E060E089910E94590A0C1714
:101AC0001D07C9F7DF91CF911F910F91EF90DF9024
:101AD000CF900C944F0AE2E5F4E0648575856D7F44
:101AE00075876487686040E0CF010C940604E2E5E6
:101AF000F4E0648575856E7F75876487686040E073
:101B0000CF010C940604CF93DF93FC0144815581EF
:101B1000608171818EE993E00E948D00EC016FED90
:101B200072E08EE993E00E945D038C0F9D1FDF91B0
:101B3000CF9108958F929F92AF92BF92CF92DF92F2
:101B4000EF92FF920F931F93CF93DF93CDB7DEB742
:101B5000A1970FB6F894DEBF0FBECDBF6C01990FF1
:101B6000EE08FF08F7FE2DC06DE28EE993E00E94BB
:101B700020018C0122273327A9012C193D094E0988
:101B80005F0919A2CE0181967C019AE0892E912CE1
:101B9000A12CB12CCA01B901A50194010E942817FA
:101BA000605DF70162937F01211531054105510503
:101BB00089F7BF018EE993E00E945D03080F191FAA
:101BC00020C0A701960119A28E010F5D1F4F8AE068
:101BD000C82ED12CE12CF12CCA01B901A701960124
:101BE0000E942817605DF80162938F01211531056D
:101BF0004105510589F7BF018EE993E00E945D031D
:101C00008C016FED72E08EE993E00E945D03800F1E
:101C1000911FA1960FB6F894DEBF0FBECDBFDF9126
:101C2000CF911F910F91FF90EF90DF90CF90BF90D9
:101C3000AF909F908F900895CF93DF93282F30E03F
:101C4000F901E255FF4F8491F901E656FF4FD49117
:101C5000F901EA57FF4FC491CC2391F081110E9402
:101C6000A00CEC2FF0E0EE0FFF1FE458FF4FA59102
:101C7000B491EC91ED2381E090E021F480E002C08A
:101C800080E090E0DF91CF9108951F93CF93DF9391
:101C9000282F30E0F901E255FF4F8491F901E65613
:101CA000FF4FD491F901EA57FF4FC491CC23C1F003
:101CB000162F81110E94A00CEC2FF0E0EE0FFF1FF9
:101CC000EE58FF4FA591B4919FB7F894111104C03D
:101CD0008C91D095D82302C0EC91DE2BDC939FBF72
:101CE000DF91CF911F9108958F929F92AF92BF92F3
:101CF000CF92DF92EF92FF920F931F93CF930E94A8
:101D00008D0A61E08FEB0E94590A89E6E82E84E093
:101D1000F82E91E7C92E94E0D92E812C912C5401F4
:101D2000839400E010E0C0E061E0809147040E94ED
:101D3000450E60E0809147040E94450E8091480462
:101D40000E941C0E892B61F0D501C401002E04C035
:101D5000880F991FAA1FBB1F0A94D2F7C82B0CC06B
:101D6000D501C401002E04C0880F991FAA1FBB1FF4
:101D70000A94D2F78095C8230F5F1F4F08301105D2
:101D800099F6F701C1937F01CE16DF0651F60E9446
:101D90004F0A80916904982F9695969596959E7016
:101DA000292F220F220F920F8F70890F80934A04E0
:101DB00080916A04982F9695969596959E70292FF6
:101DC000220F220F920F8F70890F80934B04809106
:101DD0006B04982F9695969596959670292F220FBD
:101DE000220F920F8F70890F80934C0480916E04A4
:101DF000877080934D0480916C04982F96959695EA
:101E000096959670292F220F220F920F8F70890FAF
:101E100080934E0480916D0484FB992790F9990F6B
:101E2000292F220F220F920F8F70890F80934F045A
:101E300080916F04282F22952F708F7090E0FAE028
:101E40002F9F800D911D11248053984F9093510422
:101E500080935004CF911F910F91FF90EF90DF90EE
:101E6000CF90BF90AF909F908F900895CF93DF93C6
:101E700090E0FC01E656FF4F2491FC01EA57FF4F2A
:101E80008491882361F190E0880F991FFC01E85943
:101E9000FF4FC591D491FC01EE58FF4FA591B4912D
:101EA000611109C09FB7F8948881209582238883A7
:101EB000EC912E230BC0623061F49FB7F8948881B7
:101EC000322F309583238883EC912E2B2C939FBF48
:101ED00006C08FB7F894E8812E2B28838FBFDF913F
:101EE000CF9108958F929F92AF92BF92CF92DF923F
:101EF000EF92FF926B017C010E94C90C4B015C01C7
:101F0000C114D104E104F104F1F00E94C90CDC0118
:101F1000CB0188199909AA09BB09883E9340A105FC
:101F2000B10570F321E0C21AD108E108F10888EE8A
:101F3000880E83E0981EA11CB11CC114D104E104D9
:101F4000F10419F7DDCFFF90EF90DF90CF90BF90B5
:101F5000AF909F908F9008951F920F920FB60F929F
:101F600011242F933F938F939F93AF93BF938091AF
:101F7000610490916204A0916304B0916404309173
:101F8000600423E0230F2D3720F40196A11DB11D1D
:101F900005C026E8230F0296A11DB11D2093600401
:101FA0008093610490936204A0936304B0936404EB
:101FB0008091650490916604A0916704B0916804D3
:101FC0000196A11DB11D8093650490936604A093B2
:101FD0006704B0936804BF91AF919F918F913F9137
:101FE0002F910F900FBE0F901F901895CF93DF93F6
:101FF000CDB7DEB7A2970FB6F894DEBF0FBECDBF48
:10200000789484B5826084BD84B5816084BD85B5D3
:10201000826085BD85B5816085BD80916E008160DF
:1020200080936E0010928100809181008260809385
:102030008100809181008160809381008091800087
:102040008160809380008091B10084608093B100B2
:102050008091B00081608093B00080917A008460AC
:1020600080937A0080917A00826080937A008091D8
:102070007A00816080937A0080917A0080688093F2
:102080007A001092C10061E08DE00E94360FE0916D
:10209000AE03F091AF0382E08083E091AA03F09158
:1020A000AB031082E091AC03F091AD038FEC808321
:1020B0001092B603E091B203F091B30386E08083FF
:1020C000E091B003F091B103808180618083E09161
:1020D000B003F091B103808188608083E091B00308
:1020E000F091B103808180688083E091B003F0912A
:1020F000B10380818F7D808362E08EE00E94360F85
:1021000062E085E00E94360F62E083E00E94360FB5
:102110000E94180B81E080937A0387E280939C03EE
:1021200010927B0310929D030E94B00A81116FC030
:1021300002E010E010935B0400935A040E94180B15
:1021400020E040E060E070E082E594E00E94CA0395
:102150008BE39DE00197F1F784E090E090935F04BA
:1021600080935E0410935D0400935C0440E063E0A0
:1021700070E082E594E00E94EB038BE496E4019723
:10218000F1F740E063E070E082E594E00E94EB0349
:102190000BE113E0C8010197F1F740E063E070E064
:1021A00082E594E00E94EB03C8010197F1F740E05B
:1021B00062E070E082E594E00E94EB0340E068E2B8
:1021C00070E082E594E00E94060460915E047091E4
:1021D0005F04CB01846090935F0480935E046C6025
:1021E00040E082E594E00E9406040E940C0B60919E
:1021F0005C0470915D04CB01826090935D048093D8
:102200005C04666040E082E594E00E940604F89475
:1022100010928000109281008EEE95E890938500D8
:1022200080938400809181008460809381008091FC
:102230006F00816080936F00789461EE72E0CE0150
:1022400043960E94480361EE72E0CE010D960E9413
:1022500048038FEF90E0909359048093580420E056
:1022600041E060E070E082E594E00E94CA03CE01A4
:1022700007960E94330969EC71E0CE0101960E9435
:102280004803BE01695F7F4FCE0101960E94F902AB
:10229000BC01CE0143960E942303CE0101960E9409
:1022A0003A03CE0107960E943A03CE0107960E9498
:1022B0004A0860ED71E0CE0101960E944803BE011C
:1022C000695F7F4FCE0101960E94F902BC01CE01E9
:1022D0000D960E942303CE0101960E943A03CE017F
:1022E00007960E943A030E94770D0E946B0DBE0173
:1022F0006D5E7F4FCE0101960E943F0341E060E09A
:1023000070E0CE0101960E94E10BCE0101960E9481
:102310003A03BE01635F7F4FCE0101960E943F03E7
:1023200040E061E070E0CE0101960E94E10BCE0139
:1023300001960E943A0380914503882361F061E091
:1023400070E08FE090E00E94830B67ED71E082E522
:1023500094E00E945D03CE010D960E943A03CE01E7
:1023600043960E943A03F9E22F2E312C0E94EF0986
:10237000853009F092C3AA24A394B12C0E94EF09DE
:102380008111FCCF82E0A816B104D9F05CF481E0A1
:10239000A816B10429F580E090E00E94520789ED6B
:1023A00091E01CC093E0A916B10491F084E0A81656
:1023B000B104B1F481E090E00E9414078FE092E054
:1023C0000DC081E090E00E9452078EEE91E006C0C1
:1023D00080E090E00E94140783E092E00E94700B7E
:1023E0000E94EF09843041F494E0A916B104C4F7C7
:1023F0008FEFA81AB80A09C0823059F491E0A916E3
:10240000B10471F381E0A81AB108C5010E949A0DC8
:10241000B5CF863009F441C3853011F792E0A91693
:10242000B10409F4B7C14CF491E0A916B10419F153
:10243000A114B10409F0A2CF30C383E0A816B104FF
:1024400009F4E4C294E0A916B10491F787E992E097
:102450000E94700B0E94D50B0E940C0B66EA72E082
:1024600082E594E00E945D0364E670E080E090E025
:102470000E94720F04C38BE192E00E94700B8AE20B
:1024800092E00E94700BCE0101960E94330960E039
:10249000CE0101960E94ED07CE0101960E943A03FB
:1024A00081E08093480300914E0410E060904F0457
:1024B000712CC0905004D090510480914C0488A39A
:1024C00090914B0499A380914A048AA30E94EF093A
:1024D0008111FCCF91E09F8F0E94EF09833091F42E
:1024E00080914803813021F484E08093480305C043
:1024F000843019F499E0909348030E94EF098330E7
:10250000E1F79CC3813089F490914803993011F42C
:1025100084E002C0943011F4809348030E94EF09D4
:102520008130E1F77301260175C08230A9F589E396
:1025300092E00E94700B80914803813051F4003288
:102540001105D4F448019FEF891A990A26017301F5
:102550001EC0843051F48CE06816710499F0730148
:102560009FEFE91AF90A260105C026018FEF481AE4
:10257000580A730148010BC0260173018824839413
:10258000912C05C026014801EE24E394F12C0E9411
:10259000EF098230E1F73BC0843089F58091480330
:1025A000813051F401301105D1F0480191E0891AD0
:1025B0009108260173011EC0843051F481E0681631
:1025C000710499F0730191E0E91AF108260105C040
:1025D000260181E0481A5108730148010BC0260109
:1025E00073015FE1852E912C05C0260148014CE066
:1025F000E42EF12C0E94EF098430E1F708C0863008
:1026000009F00EC30E94EF098630E1F3B7CE08153A
:10261000190579F46E147F0469F44C145D0451F4C7
:10262000809148039F8D891302C0620155CF7301C9
:1026300001C08401D090480384E492E00E94700BB2
:1026400061EE72E0CE0149960E94480361EE72E0AD
:10265000CE0143960E944803B201CE010D960E941E
:10266000740CB801CE0101960A301105CCF40E9419
:10267000740C65E971E0CE0107960E944803BE0123
:102680006F5F7F4FCE0107960E94F902BC01CE0119
:1026900049960E942303CE0107960E943A0309C07F
:1026A0000E94740CBE016F5F7F4FCE0149960E945D
:1026B0000E0CCE0101960E943A03B7018AE0E8169B
:1026C000F104DCF4CE0101960E94740C65E971E01E
:1026D000CE0107960E944803BE016F5F7F4FCE0177
:1026E00007960E94F902BC01CE0143960E94230383
:1026F000CE0107960E943A030BC0CE0101960E94BC
:10270000740CBE016F5F7F4FCE0143960E940E0C8A
:10271000CE0101960E943A03BE01675E7F4FCE0153
:1027200001960E943F0367EC71E0CE0101960E9482
:10273000E002BE016D5E7F4F0E94F90267EC71E01E
:102740000E94E002BE01635F7F4F0E94F902BC015C
:10275000CE0107960E943F03CE0101960E943A03E4
:10276000CE010D960E943A03CE0143960E943A0391
:10277000CE0149960E943A036D2DCE0107960E9424
:10278000ED07CE0107960E943A03909148039F8F70
:1027900037014BCF86E592E00E94700B85E692E010
:1027A0000E94700BCE0101960E944A0860E0CE01A3
:1027B00001960E949007CE0101960E943A0381E0A3
:1027C0008093480300914E04E0904F04C090500461
:1027D000D090510460904C04712C80904B04912C4B
:1027E00040904A04512C0E94EF098111FCCF11E066
:1027F00034E0F32E0E94EF098330A1F50E94EF0927
:10280000833021F560914803CE0101960E94470C68
:1028100064E772E0CE0107960E944803BE016F5F35
:102820007F4FCE0107960E94F9020E94830DCE01D0
:1028300007960E943A03CE0101960E943A0364E68D
:1028400070E080E090E00E94720FD8CF8091480342
:10285000843021F487E080934803FFC1813009F080
:10286000FCC12EC08130B1F50E94EF09813021F505
:1028700060914803CE0101960E94470C6BE772E01D
:10288000CE0107960E944803BE016F5F7F4FCE01C5
:1028900007960E94F9020E94830DCE0107960E94BE
:1028A0003A03CE0101960E943A0364E670E080E0AC
:1028B00090E00E94720FD8CF80914803873019F4BE
:1028C000F0924803CAC1843009F0C7C191E09093E7
:1028D0004803C3C1823051F50E94EF098230E1F311
:1028E00089E392E00E94700B80914803813041F4AB
:1028F00088E16816710484F593012F5F3F4F29C06A
:10290000843049F49CE38916910409F47FC1C40121
:102910000196A20109C08CE34816510409F47BC159
:10292000A2014F5F5F4FC40193011AC0843009F0C8
:1029300066C10E94EF098430E1F380914803813041
:1029400009F03EC16114710409F44DC19301215095
:102950003109A201C40104C0A201C40120E030E099
:102960002615370569F48815990551F4441655065E
:1029700039F4390120914803211304C04C013ACFA6
:102980002A0139014C0160914803CE0101960E9451
:10299000470C9201A401B301CE010D960E941606C8
:1029A000BE01635F7F4FCE0107960E943F0365ED36
:1029B00071E0CE0107960E94E002BE016F5F7F4F7B
:1029C0000E94F9020E94830DCE0107960E943A03ED
:1029D000CE010D960E943A03CE0101960E943A0361
:1029E000109148039201A401B301CE0101960E9407
:1029F0001606612FCE0101960E949007CE01019626
:102A00000E943A0310914803C401B8CF81E892E0D4
:102A10000E94700B0E94CE050E94EF098111FCCF2D
:102A200011E00E94EF091092470310924603813093
:102A300029F40E94EF098111FCCF06C0833079F49C
:102A40000E94EF098111FCCF80914503812780937B
:102A5000450390E00E949A0D0E94CE05E2CF863099
:102A600029F40E94EF098111FCCF88CC8530C9F68A
:102A70000E94EF098111FCCF81CC853049F00E9482
:102A8000EF098630D1F70E94EF098630E1F376CC6A
:102A90000E94EF098630E1F371CC69E170E080E0DB
:102AA00090E00E94720F80914603909147030A972D
:102AB00074F01092450360E082E00E94450E81EBC5
:102AC00092E00E94700B8EEB92E00E94700B83E00C
:102AD0000E941C0E8C0190934C0380934B0385E065
:102AE0000E941C0E9093010180930001012B89F438
:102AF00080914503882369F061E08DE00E94450ED6
:102B000061E082E00E94450E80ED92E00E94700B31
:102B10000CC060E08DE00E94450E60E082E00E9403
:102B2000450E109247031092460380910001909148
:102B30000101892BE9F561E08DE00E94450E80914D
:102B4000490390914A03019690934A038093490365
:102B500068EC70E080E090E00E94720F85E00E94D7
:102B60001C0E2091490330914A03892B39F42F5FC1
:102B70003F4F30934A0320934903EACF2130310578
:102B800049F41092450360E082E00E94450E81E026
:102B900090E008C0223031053CF081E0809345038D
:102BA00085E090E00E944A0B10924A03109249037C
:102BB00091E0291A310809F0D9CB0E948F013DCB51
:102BC000843041F48114910491F0C4010197A20171
:102BD0009301C9CE4114510471F0A2014150510931
:102BE0009301C401C3CE27E1622E712CCCCE9CE3AD
:102BF000892E912CC8CE8CE3482E512CC4CE863021
:102C0000F9F40E94EF098630E1F3B8CBA2019301F9
:102C100080E090E0A5CEC401930140E050E0A0CE5A
:102C2000853061F4E62C21E048A169A18AA10E94C7
:102C3000EE0C0E94EF098530E1F3A0CB2601F0CC29
:102C4000853059F421E0462D682D842D0E94EE0C2C
:102C50000E94EF098530E1F391CBC4018BCEEEE900
:102C6000F3E01382128288EE93E0A0E0B0E0848368
:102C70009583A683B78324E331E03183208325EC59
:102C800030E03587248724EC30E03787268720EC36
:102C900030E0318B208B21EC30E0338B228B22EC27
:102CA00030E0358B248B26EC30E0378B268B118E71
:102CB000128E138E148EEBE3F4E01382128284835F
:102CC0009583A683B78386E491E091838083E2E5D0
:102CD000F4E01382128288E591E09183808387E299
:102CE00090E0958384831782168282E090E0938738
:102CF000828784E090E095878487E7E4F4E080832E
:102D000083E0818382E082830E948D0A60E08EE806
:102D10000E94590A60E080E00E94590A0E944F0A0E
:102D20000E948D0A60E080E90E94590A60E080E01C
:102D30000E94590A0C944F0ABB274A3031F4992358
:102D400022F4BDE2909581959F4F0C94A816BB2765
:102D5000FB015527AA27880F991FAA1FA41710F057
:102D6000A41B83955051B9F7A05DAA3308F0A95D63
:102D7000A193009779F7B111B1931192CB010C9403
:102D8000C116DC01FC01672F71917723E1F73297BF
:102D900004C07C916D9370836291AE17BF07C8F336
:102DA00008952F923F924F925F926F927F928F92EF
:102DB0009F92AF92BF92CF92DF92EF92FF920F93CA
:102DC0001F93CF93DF93CDB7DEB7CA1BDB0B0FB6D4
:102DD000F894DEBF0FBECDBF09942A883988488891
:102DE0005F846E847D848C849B84AA84B984C88427
:102DF000DF80EE80FD800C811B81AA81B981CE0F1E
:102E0000D11D0FB6F894DEBF0FBECDBFED01089502
:102E1000991B79E004C0991F961708F0961B881F2C
:102E20007A95C9F78095089597FB072E16F40094BC
:102E300007D077FD09D00E944A1707FC05D03EF461
:102E4000909581959F4F0895709561957F4F089556
:102E5000A1E21A2EAA1BBB1BFD010DC0AA1FBB1F9E
:102E6000EE1FFF1FA217B307E407F50720F0A21B10
:102E7000B30BE40BF50B661F771F881F991F1A947D
:102E800069F760957095809590959B01AC01BD01A7
:102E9000CF010895AA1BBB1B51E107C0AA1FBB1F8E
:102EA000A617B70710F0A61BB70B881F991F5A95D6
:102EB000A9F780959095BC01CD010895EE0FFF1FF5
:102EC0000590F491E02D09940F931F93CF93DF9316
:102ED0008230910510F482E090E0E0917304F0916B
:102EE000740420E030E0A0E0B0E0309719F14081B8
:102EF00051810281138148175907C8F0841795073B
:102F000069F4109731F012960C93129713961C9354
:102F100027C0009373041093740422C02115310557
:102F200019F04217530718F49A01BD01EF01DF01B0
:102F3000F801DBCF21153105F9F0281B390B2430BE
:102F4000310580F48A819B816115710521F0FB01B7
:102F50009383828304C09093740480937304FE016E
:102F6000329644C0FE01E20FF31F819391932250E9
:102F70003109398328833AC0209171043091720459
:102F8000232B41F4209124013091250130937204C8
:102F900020937104209122013091230121153105E4
:102FA00041F42DB73EB74091260150912701241BD3
:102FB000350BE0917104F0917204E217F307A0F46D
:102FC0002E1B3F0B2817390778F0AC014E5F5F4F7F
:102FD0002417350748F04E0F5F1F5093720440933B
:102FE00071048193919302C0E0E0F0E0CF01DF91A2
:102FF000CF911F910F910895CF93DF93009709F41C
:1030000081C0FC01329713821282A0917304B091A7
:103010007404109781F420813181820F931F2091D5
:103020007104309172042817390751F5F093720436
:10303000E093710467C0ED0120E030E0CE17DF07B8
:1030400040F44A815B819E0141155105F1F0EA018E
:10305000F5CFD383C28340815181840F951FC81758
:10306000D90759F488819981840F951F029691831D
:1030700080838A819B81938382832115310529F482
:10308000F0937404E09373043DC0E901FB83EA8389
:1030900049915991C40FD51FEC17FD0761F4808148
:1030A0009181840F951F0296E9019983888382811B
:1030B00093819B838A83E0E0F0E012968D919C914E
:1030C0001397009719F0FD01DC01F7CF8D919C91CA
:1030D00011979D012E5F3F4F820F931F2091710426
:1030E000309172042817390769F4309729F4109247
:1030F00074041092730402C013821282B09372049B
:10310000A0937104DF91CF910895A0E0B0E0EBE8C7
:10311000F8E10C94D516EC01009721F4CB010E9444
:103120006417B4C0FC01E60FF71F9C01225031095F
:10313000E217F30708F4A8C0D9010D911C9111976B
:1031400006171707B0F00530110508F49BC0C80139
:1031500004978617970708F495C002501109061BBB
:10316000170B019311936D937C93CF010E94FC1771
:1031700089C05B01A01AB10A4C01800E911EA0917A
:103180007304B0917404612C712CE12CF12C109714
:1031900009F446C08D919C911197A815B905B1F518
:1031A0006C0142E0C40ED11CCA14DB0478F14C015E
:1031B0008A189B08640142E0C40ED11C1296BC9090
:1031C00012971396AC91B5E0CB16D10440F0B282C1
:1031D000A38391828082D9016D937C9309C00E5F95
:1031E0001F4F800F911FF90191838083EB2DFA2FE0
:1031F000E114F10431F0D7011396FC93EE9312978A
:1032000041C0F0937404E09373043CC068167906DF
:1032100008F43C017D0112960D90BC91A02DB7CF12
:10322000809171049091720488169906E1F46616F3
:103230007706C8F48091220190912301009741F410
:103240008DB79EB74091260150912701841B950BA5
:10325000E817F907C8F4F0937204E0937104F901D8
:10326000718360830FC0CB010E9464177C010097BB
:1032700059F0A801BE010E944B19CE010E94FC1713
:10328000C70104C0CE0102C080E090E0CDB7DEB738
:10329000EEE00C94F116FB01DC0102C001900D92EE
:1032A00041505040D8F70895FB01DC0101900D9288
:0A32B0000020E1F70895F894FFCF25
:1032BA0001000000000000001F001F0000000000C5
:1032CA000000030006000C001F001F000C0006008F
:1032DA0003000000750420000000400014005400A0
:1032EA000000000020018D00B7006D01E800C60053
:1032FA00DA00000000002602F9015502CD01F101B1
:10330A00DD01CE010000000024048D0055028C006E
:10331A0053746F702070756D7020726566696C6C7D
:10332A0020004F4E0050756D7020526566696C6CB6
:10333A003A200046756E632050726570617265208E
:10334A0054696D6500300050756D7020726566694C
:10335A006C6C3A0050756D7020646F73696E673AD1
:10336A00004564697420446174653A00456469746F
:10337A002054696D653A002F00446174653A200053
:10338A0054696D653A20002A004461746554696D78
:10339A0065204D656E75206C696E6520310044614B
:1033AA00746554696D65204D656E75206C696E652E
:1033BA0020320050756D70204D656E7520310050B9
:1033CA00756D70204D656E752032004564697420F4
:1033DA0064617465206D656E750046756E6320457F
:1033EA00646974204461746500555020436C6963B4
:1033FA006B65640046756E63205072657061726514
:10340A00204461746500456469742074696D65209F
:10341A006D656E750046756E632045646974205447
:10342A00696D6500526967687420004C656674208E
:10343A0000456469742070756D7020726566696CE8
:10344A006C206D656E7500456469742070756D70C9
:10345A00206D656E750050756D70206D656E7532E4
:10346A000054696D656F75742070756D70005379BD
:10347A007374656D207475726E6564204F464600DC
:10348A0050756D7020616374697661746564000DAE
:02349A000A0026
:00000001FF
